:100000000C9435000C945D000C945D000C945D0024
:100010000C945D000C945D000C945D000C945D00EC
:100020000C945D000C945D000C945D000C945D00DC
:100030000C945D000C945D000C945D000C945D00CC
:100040000C94E0030C945D000C94AE030C948803B4
:100050000C945D000C945D000C945D000C945D00AC
:100060000C945D000C945D002A0411241FBECFEF98
:10007000D8E0DEBFCDBF23E0AEEBB2E001C01D9201
:10008000A63BB207E1F712E0A0E0B1E0E4E7F3E15C
:1000900002C005900D92AE3BB107D9F710E0C5E361
:1000A000D0E004C02197FE010E94AD07C433D10700
:1000B000C9F70E9479040C94B8090C9400000F93BE
:1000C0001F93CF93DF93C82FD62F0FEA13E0D801E9
:1000D00011968D919C911297DC01ED91FC9101900C
:1000E000F081E02DD8016C910995F8018181928110
:1000F000DC01ED91FC910190F081E02D6C2F0995D0
:10010000F80181819281DC01ED91FC910190F081F7
:10011000E02D6D2F0995F8018181928160816D0F2D
:100120006C0F6F77DC01ED91FC910190F081E02D77
:10013000DF91CF911F910F910994CF92DF92EF92AF
:10014000FF920F931F93CF93DF936C017A018B0182
:10015000C0E0D0E0CE15DF0581F0D8016D918D01B2
:10016000D601ED91FC910190F081E02DC601099539
:10017000892B11F02196EECF7E01C701DF91CF913F
:100180001F910F91FF90EF90DF90CF90089580E046
:1001900090E00895FC01538D448D252F30E0842F8D
:1001A00090E0821B930B541710F0CF96089501979F
:1001B0000895FC01918D828D981761F0828DDF0189
:1001C000A80FB11D5D968C91928D9F5F9F73928F4A
:1001D00090E008958FEF9FEF0895FC01918D828D3F
:1001E000981731F0828DE80FF11D858D90E008950C
:1001F0008FEF9FEF0895FC01918D228D892F90E064
:10020000805C9F4F821B91098F7399270895FC0191
:10021000848DDF01A80FB11DA35ABF4F2C91848D8F
:1002200090E001968F739927848FA689B7892C93C4
:10023000A089B1898C91837080648C93938D848D17
:10024000981306C00288F389E02D80818F7D80831A
:100250000895EF92FF920F931F93CF93DF93EC01DA
:1002600081E0888F9B8D8C8D981305C0E889F98972
:10027000808185FD26C0F62E0B8D10E00F5F1F4F8D
:100280000F731127E02E8C8DE8120CC00FB607FCFF
:10029000FACFE889F989808185FFF5CFCE010E94E8
:1002A0000701F1CF8B8DFE01E80FF11DE35AFF4FDF
:1002B000F0829FB7F8940B8FEA89FB898081806276
:1002C0000AC09FB7F894EE89FF896083E889F989AD
:1002D00080818370806480839FBF81E090E0DF91A4
:1002E000CF911F910F91FF90EF900895CF93DF93DF
:1002F000EC01888D8823C9F0EA89FB89808185FD1E
:1003000005C0A889B9898C9186FD0FC00FB607FC7E
:10031000F5CF808185FFF2CFA889B9898C9185FFBF
:10032000EDCFCE010E940701E7CFDF91CF91089575
:100330008E3008F08E508770806480937C008091AE
:100340007A00806480937A0080917A0086FDFCCFE9
:10035000809178002091790090E0922B08953FB72A
:10036000F8948091C8029091C902A091CA02B091FC
:10037000CB0226B5A89B05C02F3F19F00196A11D01
:10038000B11D3FBFBA2FA92F982F8827820F911D2B
:10039000A11DB11DBC01CD0142E0660F771F881F72
:1003A000991F4A95D1F708952FB7F8946091C40228
:1003B0007091C5028091C6029091C7022FBF089527
:1003C0000895009769F0FC0101900020E9F731974A
:1003D000AF01481B590BBC0182E193E00C949D00D6
:1003E00080E090E008958F929F92AF92BF920F931A
:1003F0001F93CF93DF93CDB7DEB7A1970FB6F894D5
:10040000DEBF0FBECDBF19A2423008F44AE08E0114
:100410000F5D1F4F842E912CA12CB12CA5019401AE
:100420000E945407E62FB901CA0101501109EA30B0
:1004300014F4E05D01C0E95CD801EC93232B242B7C
:10044000252B61F7C8010E94E101A1960FB6F8942F
:10045000DEBF0FBECDBFDF91CF911F910F91BF9037
:10046000AF909F908F900895CF92DF92EF92FF927E
:10047000CF93DF936B017C016DE282E193E00E94F8
:100480002901EC0166277727CB016C197D098E09BC
:100490009F094AE00E94F3018C0F9D1FDF91CF91CD
:1004A000FF90EF90DF90CF9008950C94E1010E94AF
:1004B0009A09EF92FF920F931F93CF93DF93EC0172
:1004C0007B018A0188819981009729F02A813B81EB
:1004D00024173507F8F4B8016F5F7F4F0E94D408E6
:1004E000009759F0998388831B830A832C813D816F
:1004F000232B81F4FC0110820DC088819981009723
:1005000011F00E944B08198218821D821C821B82E6
:100510001A8207C01D830C83B701888199810E94CC
:10052000B109CE01DF91CF911F910F91FF90EF9014
:100530000895CF93DF93EC016115710559F0FB012C
:1005400001900020E9F73197AF01461B570B0E943D
:1005500059020CC088819981009711F00E944B08C4
:10056000198218821D821C821B821A82CE01DF91A1
:10057000CF9108950F931F93CF93DF938C01EB01DD
:10058000473E09F448C0D0F4473C09F447C060F442
:100590004F3909F449C04F3B09F449C04F3809F0BD
:1005A00049C062E072E048C04F3DD9F1433E81F15D
:1005B0004F3C09F03FC061EE71E03EC0493F11F190
:1005C00048F4433F11F1483FB9F0413F99F56BE6DC
:1005D00071E032C04D3F99F028F44C3F59F565E287
:1005E00071E02AC04E3F29F04F3F21F568E171E0EC
:1005F00023C06DE171E020C062E371E01DC06DE4D5
:1006000071E01AC065E571E017C06AE871E014C0D6
:100610006FE971E011C06AEA71E00EC060EC71E050
:100620000BC069EF71E008C06FE172E005C06DE2D8
:1006300072E002C066E372E0CE010E949902F80106
:100640001182108213821282158214820C171D07E8
:1006500051F0688179816115710529F04C815D81C6
:10066000C8010E945902C801DF91CF911F910F91DB
:100670000895EF92FF920F931F93CF93DF9300D0D3
:1006800000D000D0CDB7DEB78B01BC01CE01019602
:100690000E94BA02F80180819181E980FA80009776
:1006A00019F0E114F104C9F4E114F10459F02D81B9
:1006B0003E81232B39F0F701008110E0119501955F
:1006C000110912C0009771F0F80124813581232BA4
:1006D00049F0FC01008110E007C0B7010E94A809A1
:1006E0008C0102C000E010E0C7010E944B0881E0CD
:1006F000012B09F080E026960FB6F894DEBF0FBEFE
:10070000CDBFDF91CF911F910F91FF90EF90089592
:100710001F920F920FB60F9211242F933F934F9376
:100720005F936F937F938F939F93AF93BF93EF9359
:10073000FF9382E193E00E940701FF91EF91BF9147
:10074000AF919F918F917F916F915F914F913F9169
:100750002F910F900FBE0F901F9018951F920F9220
:100760000FB60F9211242F938F939F93EF93FF93C4
:10077000E0912203F09123038081E0912803F0911E
:10078000290382FD12C0908180912B038F5F8F73AC
:1007900020912C03821751F0E0912B03F0E0EE5EE4
:1007A000FC4F958F80932B0301C08081FF91EF91C7
:1007B0009F918F912F910F900FBE0F901F901895C2
:1007C0001F920F920FB60F9211242F933F938F9386
:1007D0009F93AF93BF938091C4029091C502A09163
:1007E000C602B091C7023091C30223E0230F2D3718
:1007F00020F40196A11DB11D05C026E8230F029625
:10080000A11DB11D2093C3028093C4029093C50221
:10081000A093C602B093C7028091C8029091C9020A
:10082000A091CA02B091CB020196A11DB11D809387
:10083000C8029093C902A093CA02B093CB02BF91A1
:10084000AF919F918F913F912F910F900FBE0F907D
:100850001F901895E2E1F3E01382128288EE93E094
:10086000A0E0B0E084839583A683B7838AE091E01B
:100870009183808385EC90E09587848784EC90E079
:100880009787868780EC90E0918B808B81EC90E05D
:10089000938B828B82EC90E0958B848B86EC90E03E
:1008A000978B868B118E128E138E148EACECB2E069
:1008B00016961D921D921D921C9219971A961D92C2
:1008C0001D921D921C921D971E961D921D921D92A7
:1008D0001C92519752961D921D921D921C925597F3
:1008E000AFEAB3E080E88C931296FC93EE931197F5
:1008F0000895CF93DF93CDB7DEB762970FB6F89424
:10090000DEBF0FBECDBF789484B5826084BD84B550
:10091000816084BD85B5826085BD85B5816085BDFA
:1009200080916E00816080936E00109281008091B2
:10093000810082608093810080918100816080933A
:100940008100809180008160809380008091B1005F
:1009500084608093B1008091B00081608093B0008A
:1009600080917A00846080937A0080917A0082601E
:1009700080937A0080917A00816080937A008091E0
:100980007A00806880937A001092C100E09122037F
:10099000F091230322E02083E0911E03F0911F03D6
:1009A0001082E0912003F091210380E18083109276
:1009B0002A03E0912603F091270396E09083E091CB
:1009C0002403F0912503808180618083E0912403DA
:1009D000F0912503808188608083E0912403F09169
:1009E0002503808180688083E0912403F0912503B2
:1009F00080818F7D8083E0912203F0912303208307
:100A0000E0911E03F0911F031082E0912003F0910A
:100A100021038FEC808310922A03E0912603F0914A
:100A200027039083E0912403F09125038081806166
:100A30008083E0912403F091250380818860808386
:100A4000E0912403F0912503808180688083E09108
:100A50002403F091250380818F7D808360E080E016
:100A60000E945F0060E084E00E945F008AB18370B2
:100A70008AB98BB183708BB984B1807C84B985B11C
:100A8000807E85B918861F821A8619861C861B8669
:100A900040E050E069E572E0CE0107960E945902FD
:100AA0001E861D86188A1F861A8A198A40E050E021
:100AB00069E572E0CE010D960E94590244EF442E82
:100AC00055245394612C712C0E94D401672B682B00
:100AD000692B41F40E94D4016230710581059105B2
:100AE00008F4E4C00E94D401C090BF02D090C002BC
:100AF000E090C102F090C2026C157D058E059F0545
:100B000040F46093BF027093C0028093C10290933F
:100B1000C202C090BF02D090C002E090C102F0902B
:100B2000C2029B01AC012C193D094E095F09690104
:100B30007A013AEFC316D104E104F10408F4B6C017
:100B40006093BF027093C0028093C1029093C2026F
:100B50004092DA025092DB026092DC027092DD0277
:100B60001092DE021092DF021092E0021092E10277
:100B70008091D2029091D302A091D402B091D5027B
:100B80008093D6029093D702A093D802B093D90253
:100B90000E94D4016093D2027093D3028093D40256
:100BA0009093D5020E94D4016093CE027093CF023D
:100BB0008093D0029093D1020E94D4016B017C01FA
:100BC00083E492E00E9455024AE061E070E080E038
:100BD00090E00E94F3018AE492E00E9455024AE00C
:100BE000C701B6010E94F3018CE492E00E94550215
:100BF0008091D2029091D302A091D402B091D502FB
:100C0000A7019601281B390B4A0B5B0BCA01B901DE
:100C10004AE00E94F3018CE492E00E945502809128
:100C2000D2029091D302A091D402B091D502C0908B
:100C3000D602D090D702E090D802F090D902BC0141
:100C4000CD016C197D098E099F094AE00E94F301CC
:100C50008EE492E00E9455020E94D4014AE00E9474
:100C6000F30180E592E00E94E10187E592E00E94B5
:100C7000E1010E94D4014B015C016B017C0135E074
:100C8000C30ED11CE11CF11C0E94D401681579052A
:100C90008A059B0508F001C10E94D4016093D2022D
:100CA0007093D3028093D4029093D50293B189B10B
:100CB00090FB222420F8312C910196E0220F331F63
:100CC0009A95E1F7869586958068822B8093BE027F
:100CD0008FE00E9498018EE00E949801F3B0E9B085
:100CE0008AE592E00E9455020F2D017010E0C801C4
:100CF00026E0880F991F2A95E1F76E2D6695669577
:100D00006068682B70E080E090E042E00E94F301B0
:100D100084E692E00E9455026F2D70E06F7D75951C
:100D20006795072E000C880B990B42E00E94F30197
:100D30008EE692E00E9455028FE00E9498018EE0BC
:100D40000E949801092E000CAA0BBB0B61E08436AF
:100D50009105A105B10508F060E070E080E090E049
:100D60004AE00E94F30188E792E00E9455028FE07A
:100D70000E9498018EE00E949801BC01990F880B97
:100D8000990B4AE00E94F30186E892E00E94550226
:100D90008FE00E9498017C018EE00E949801B701CB
:100DA000FF0C880B990B4AE00E94F30185E992E061
:100DB0000E9455024091BE02BE01695F7F4FCE0185
:100DC00001960E94BA0289819A810E944B0888E9A3
:100DD00092E00E9455024B855C856F81788582E1A7
:100DE00093E00E949D0087EA92E00E945502F090F5
:100DF000BE021A8219821C821B821E821D824AE058
:100E000050E06FE971E0CE0101960E9459024F2D2A
:100E1000BE016F5F7F4FCE010D960E943903682F90
:100E200070E080E090E04AE00E94F30187E592E004
:100E30000E94E10189819A810E944B0888E592E035
:100E40000E94E10187E592E00E94E1010E94AF016A
:100E50004B015C018AEFC82ED12CE12CF12C0E94B1
:100E6000AF01DC01CB0188199909AA09BB09883EA9
:100E70009340A105B10598F341E0C41AD108E108F7
:100E8000F10858EE850E53E0951EA11CB11CC1144B
:100E9000D104E104F10419F717CEC616D706E80607
:100EA000F90608F0F1CEF8CEA1E21A2EAA1BBB1B60
:100EB000FD010DC0AA1FBB1FEE1FFF1FA217B30726
:100EC000E407F50720F0A21BB30BE40BF50B661F3C
:100ED000771F881F991F1A9469F760957095809500
:100EE00090959B01AC01BD01CF0108952F923F92D7
:100EF0004F925F926F927F928F929F92AF92BF922A
:100F0000CF92DF92EF92FF920F931F93CF93DF93D5
:100F1000CDB7DEB7CA1BDB0B0FB6F894DEBF0FBE32
:100F2000CDBF09942A88398848885F846E847D847F
:100F30008C849B84AA84B984C884DF80EE80FD8081
:100F40000C811B81AA81B981CE0FD11D0FB6F894F7
:100F5000DEBF0FBECDBFED010895EE0FFF1F059060
:100F6000F491E02D09940F931F93CF93DF93823078
:100F7000910510F482E090E0E091B403F091B503A4
:100F800020E030E0A0E0B0E0309719F140815181DD
:100F90000281138148175907C8F08417950769F42F
:100FA000109731F012960C93129713961C9327C04A
:100FB0000093B4031093B50322C02115310519F035
:100FC0004217530718F49A01BD01EF01DF01F80140
:100FD000DBCF21153105F9F0281B390B2430310501
:100FE00080F48A819B816115710521F0FB01938357
:100FF000828304C09093B5038093B403FE013296BC
:1010000044C0FE01E20FF31F8193919322503109F6
:10101000398328833AC02091B2033091B303232B44
:1010200041F420910201309103013093B3032093E6
:10103000B20320910001309101012115310541F4E5
:101040002DB73EB74091040150910501241B350B8B
:10105000E091B203F091B303E217F307A0F42E1B63
:101060003F0B2817390778F0AC014E5F5F4F24170C
:10107000350748F04E0F5F1F5093B3034093B20300
:101080008193919302C0E0E0F0E0CF01DF91CF9136
:101090001F910F910895CF93DF93009709F481C0BA
:1010A000FC01329713821282A091B403B091B50370
:1010B000109781F420813181820F931F2091B20318
:1010C0003091B3032817390751F5F093B303E09338
:1010D000B20367C0ED0120E030E0CE17DF0740F437
:1010E0004A815B819E0141155105F1F0EA01F5CF7E
:1010F000D383C28340815181840F951FC817D907BC
:1011000059F488819981840F951F02969183808379
:101110008A819B81938382832115310529F4F09381
:10112000B503E093B4033DC0E901FB83EA83499131
:101130005991C40FD51FEC17FD0761F4808191818F
:10114000840F951F0296E901998388838281938198
:101150009B838A83E0E0F0E012968D919C91139737
:10116000009719F0FD01DC01F7CF8D919C9111974B
:101170009D012E5F3F4F820F931F2091B20330914C
:10118000B3032817390769F4309729F41092B5038F
:101190001092B40302C013821282B093B303A093DF
:1011A000B203DF91CF910895A0E0B0E0EAEDF8E05E
:1011B0000C947A07EC01009721F4CB010E94B3074D
:1011C000B4C0FC01E60FF71F9C0122503109E21761
:1011D000F30708F4A8C0D9010D911C9111970617C7
:1011E0001707B0F00530110508F49BC0C80104973B
:1011F0008617970708F495C002501109061B170BB4
:10120000019311936D937C93CF010E944B0889C089
:101210005B01A01AB10A4C01800E911EA091B4038B
:10122000B091B503612C712CE12CF12C109709F4CD
:1012300046C08D919C911197A815B905B1F56C0127
:1012400042E0C40ED11CCA14DB0478F14C018A18A8
:101250009B08640142E0C40ED11C1296BC90129708
:101260001396AC91B5E0CB16D10440F0B282A383C3
:1012700091828082D9016D937C9309C00E5F1F4FCC
:10128000800F911FF90191838083EB2DFA2FE114D8
:10129000F10431F0D7011396FC93EE93129741C0FD
:1012A000F093B503E093B4033CC06816790608F4E4
:1012B0003C017D0112960D90BC91A02DB7CF80917D
:1012C000B2039091B30388169906E1F46616770687
:1012D000C8F48091000190910101009741F48DB70D
:1012E0009EB74091040150910501841B950BE817AE
:1012F000F907C8F4F093B303E093B203F9017183E3
:1013000060830FC0CB010E94B3077C01009759F0A6
:10131000A801BE010E949F09CE010E944B08C7018F
:1013200004C0CE0102C080E090E0CDB7DEB7EEE0B1
:101330000C94960781E090E0F8940C94B809FB01B6
:10134000DC0102C001900D9241505040D8F7089541
:10135000FB01DC018D91019080190110D9F3990BEB
:101360000895FB01DC0101900D920020E1F7089542
:04137000F894FFCF1F
:101374000000B60380000000000029019D00CA009F
:101384007601FB00D900ED004E6F6E65004C65667A
:1013940074203930004C656674203930202620349E
:1013A40035004C6566742039302026203435202BD6
:1013B400206C6566742063656E747265004C6566A6
:1013C40074203435004C656674203435202B206C31
:1013D4006566742063656E747265004C656674207E
:1013E4003435202B206C6566742026206D69646476
:1013F4006C652063656E747265004C6566742026A6
:10140400206D6964646C652063656E747265004167
:101414006C6C2063656E7472650052696768742031
:1014240026206D6964646C652063656E7472650062
:101434005269676874203435202B20726967687498
:101444002026206D6964646C652063656E74726522
:10145400005269676874203435202B2072696768EC
:10146400742063656E747265005269676874203411
:1014740035005269676874203930202620343520BD
:101484002B2072696768742063656E7472650052FC
:101494006967687420393020262034350052696722
:1014A400687420393000466C6167202F20457272C1
:1014B4006F7200564D4450455F003A323A007C004A
:1014C4005F564D445045000D0A0053656E736F72AC
:1014D400733A20003B0909446970733A20003B09C0
:1014E400094C696E653A20003B20204C65667420E7
:1014F4005154523A20003B202052696768742051AD
:1015040054523A20003B0A0053656E736F72732085
:10151400636173653A2000090953656E736F722025
:0E15240063617365206D617463683A20000096
:107800000C94343C0C94513C0C94513C0C94513CE1
:107810000C94513C0C94513C0C94513C0C94513CB4
:107820000C94513C0C94513C0C94513C0C94513CA4
:107830000C94513C0C94513C0C94513C0C94513C94
:107840000C94513C0C94513C0C94513C0C94513C84
:107850000C94513C0C94513C0C94513C0C94513C74
:107860000C94513C0C94513C11241FBECFEFD8E036
:10787000DEBFCDBF11E0A0E0B1E0ECE9FFE702C060
:1078800005900D92A230B107D9F712E0A2E0B1E065
:1078900001C01D92AD30B107E1F70E942D3D0C945F
:1078A000CC3F0C94003C982F959595959595959582
:1078B000905D8F708A307CF0282F295A8091C0000B
:1078C00085FFFCCF9093C6008091C00085FFFCCF60
:1078D0002093C6000895282F205DF0CF982F809127
:1078E000C00085FFFCCF9093C6000895EF92FF92F1
:1078F0000F931F93EE24FF2487018091C00087FD22
:1079000017C00894E11CF11C011D111D81E4E8164B
:1079100082E4F8068FE0080780E0180770F3E09132
:107920000401F091050109958091C00087FFE9CF1E
:107930008091C6001F910F91FF90EF9008950E94D3
:10794000763C982F8091C00085FFFCCF9093C600B5
:1079500091362CF490330CF09053892F089597555D
:10796000892F08951F930E949F3C182F0E949F3CCF
:107970001295107F810F1F9108951F93182F882350
:1079800021F00E94763C1150E1F71F9108951F935A
:10799000182F0E94763C803249F0809103018F5F5E
:1079A000809303018530C1F01F9108958091C0003C
:1079B00085FFFCCF84E18093C6008091C00085FFE5
:1079C000FCCF1093C6008091C00085FFFCCF80E102
:1079D0008093C6001F910895E0910401F091050184
:1079E00009951F9108950E94763C803241F0809164
:1079F00003018F5F80930301853081F008958091AA
:107A0000C00085FFFCCF84E18093C6008091C00058
:107A100085FFFCCF80E18093C6000895E0910401CA
:107A2000F09105010995089540E951E08823A1F0FE
:107A30002D9A28EE33E0FA013197F1F721503040CA
:107A4000D1F72D9828EE33E0FA013197F1F7215064
:107A50003040D1F7815061F708953F924F925F9285
:107A60006F927F928F929F92AF92BF92CF92DF924E
:107A7000EF92FF920F931F93CF93DF93000080E16B
:107A80008093C4001092C50088E18093C10086E015
:107A90008093C2005098589A259A81E00E94143D24
:107AA00024E1F22E9EE1E92E85E9D82E0FE0C02ECA
:107AB00010E1B12EAA24A394B1E49B2EA6E58A2E50
:107AC000F2E57F2EE0E26E2E79E4572E63E5462E36
:107AD00050E5352E0E94763C8033B1F18133B9F107
:107AE000803409F46FC0813409F476C0823409F41B
:107AF00085C0853409F488C0803531F1823521F1A3
:107B0000813511F1853509F485C0863509F48DC0BC
:107B1000843609F496C0843709F403C1853709F423
:107B200072C1863709F466C0809103018F5F80932C
:107B30000301853079F6E0910401F0910501099582
:107B40000E94763C803351F60E94F33CC3CF0E94E2
:107B5000763C803249F78091C00085FFFCCFF092DF
:107B6000C6008091C00085FFFCCF9092C600809136
:107B7000C00085FFFCCF8092C6008091C00085FFC9
:107B8000FCCF7092C6008091C00085FFFCCF609250
:107B9000C6008091C00085FFFCCF5092C600809146
:107BA000C00085FFFCCF4092C6008091C00085FFD9
:107BB000FCCF3092C6008091C00085FFFCCFB09210
:107BC000C60088CF0E94763C863808F4BDCF0E945C
:107BD000763C0E94F33C7ECF0E94763C803809F4CC
:107BE0009CC0813809F40BC1823809F43CC1883942
:107BF00009F48FC080E00E94C73C6CCF84E10E94F2
:107C0000BD3C0E94F33C66CF85E00E94BD3C0E94D3
:107C1000F33C60CF0E94763C809306010E94763C44
:107C2000809307010E94F33C55CF0E94763C80333D
:107C300009F41DC183E00E94BD3C80E00E94C73C66
:107C400049CF0E94763C809309020E94763C809343
:107C5000080280910C028E7F80930C020E94763C79
:107C6000853409F415C18091080290910902892B8D
:107C700089F000E010E00E94763CF801E85FFE4FDA
:107C800080830F5F1F4F80910802909109020817AF
:107C9000190788F30E94763C803209F045CF809125
:107CA0000C0280FF01C16091060170910701660F0F
:107CB000771F7093070160930601A0910802B091AD
:107CC00009021097C9F0E8E0F1E09B01AD014E0F09
:107CD0005F1FF999FECF32BD21BD819180BDFA9A17
:107CE000F99A2F5F3F4FE417F50799F76A0F7B1F4B
:107CF00070930701609306018091C00085FFFCCF5F
:107D0000F092C6008091C00085FFFCCFB092C60003
:107D1000E1CE83E00E94C73CDDCE82E00E94C73CFA
:107D2000D9CE0E94763C809309020E94763C8093D3
:107D300008028091060190910701880F991F909386
:107D40000701809306010E94763C853409F4A6C0A1
:107D500080910C028E7F80930C020E94763C8032D0
:107D600009F0B8CE8091C00085FFFCCFF092C6002C
:107D7000609108027091090261157105B9F140E046
:107D800050E080910C02A82FA170B82FB27011C0E2
:107D9000BB2309F45CC0E0910601F0910701319624
:107DA000F0930701E09306014F5F5F4F46175707B7
:107DB000E8F4AA2369F3F999FECF209106013091E6
:107DC000070132BD21BDF89A90B58091C00085FFB2
:107DD000FCCF9093C6002F5F3F4F30930701209355
:107DE00006014F5F5F4F4617570718F38091C00099
:107DF00085FDE5CE8091C00085FFF8CFE0CE81E023
:107E00000E94C73C67CE0E94763C803209F08CCE3F
:107E10008091C00085FFFCCFF092C6008091C00029
:107E200085FFFCCFE092C6008091C00085FFFCCFAB
:107E3000D092C6008091C00085FFFCCFC092C600E2
:107E40008091C00085FFFCCFB092C60043CEE09188
:107E50000601F091070194918091C00085FFFCCF4D
:107E60009093C6009CCF80E10E94C73C33CE0E9415
:107E7000763C0E94763C182F0E94763C112309F430
:107E800083C0113009F484C08FE00E94C73C22CE29
:107E900080910C02816080930C02E5CE80910C02EF
:107EA000816080930C0259CF809107018823880F4D
:107EB000880B8A2180930B02809106019091070123
:107EC000880F991F90930701809306018091080203
:107ED00080FF09C080910802909109020196909359
:107EE000090280930802F894F999FECF1127E091D6
:107EF0000601F0910701C8E0D1E08091080290915D
:107F00000902103091F40091570001700130D9F34B
:107F100003E000935700E89500915700017001308D
:107F2000D9F301E100935700E89509901990009169
:107F3000570001700130D9F301E000935700E89534
:107F40001395103498F011270091570001700130FB
:107F5000D9F305E000935700E895009157000170B0
:107F60000130D9F301E100935700E895329602976A
:107F700009F0C7CF103011F00296E5CF112480919F
:107F8000C00085FFB9CEBCCE8EE10E94C73CA2CD19
:0C7F900085E90E94C73C9ECDF894FFCF0D
:027F9C00800063
:040000030000780081
:00000001FF